{
  "contractName": "Election",
  "abi": [
    {
      "inputs": [],
      "payable": false,
      "stateMutability": "nonpayable",
      "type": "constructor"
    },
    {
      "constant": true,
      "inputs": [
        {
          "internalType": "uint256",
          "name": "",
          "type": "uint256"
        }
      ],
      "name": "parties",
      "outputs": [
        {
          "internalType": "string",
          "name": "name",
          "type": "string"
        },
        {
          "internalType": "uint256",
          "name": "id",
          "type": "uint256"
        },
        {
          "internalType": "uint256",
          "name": "voteCount",
          "type": "uint256"
        }
      ],
      "payable": false,
      "stateMutability": "view",
      "type": "function"
    },
    {
      "constant": true,
      "inputs": [],
      "name": "partycount",
      "outputs": [
        {
          "internalType": "uint256",
          "name": "",
          "type": "uint256"
        }
      ],
      "payable": false,
      "stateMutability": "view",
      "type": "function"
    },
    {
      "constant": true,
      "inputs": [
        {
          "internalType": "address",
          "name": "",
          "type": "address"
        }
      ],
      "name": "voters",
      "outputs": [
        {
          "internalType": "bool",
          "name": "",
          "type": "bool"
        }
      ],
      "payable": false,
      "stateMutability": "view",
      "type": "function"
    },
    {
      "constant": false,
      "inputs": [
        {
          "internalType": "uint256",
          "name": "id",
          "type": "uint256"
        },
        {
          "internalType": "address",
          "name": "add",
          "type": "address"
        }
      ],
      "name": "vote",
      "outputs": [],
      "payable": false,
      "stateMutability": "nonpayable",
      "type": "function"
    }
  ],
  "bytecode": "0x608060405234801561001057600080fd5b506100556040518060400160405280600381526020017f4e444100000000000000000000000000000000000000000000000000000000008152506100e260201b60201c565b6100996040518060400160405280600381526020017f55504100000000000000000000000000000000000000000000000000000000008152506100e260201b60201c565b6100dd6040518060400160405280600581526020017f6f746865720000000000000000000000000000000000000000000000000000008152506100e260201b60201c565b610202565b6002600081548092919060010191905055506040518060600160405280828152602001600254815260200160008152506000806002548152602001908152602001600020600082015181600001908051906020019061014292919061015d565b50602082015181600101556040820151816002015590505050565b828054600181600116156101000203166002900490600052602060002090601f016020900481019282601f1061019e57805160ff19168380011785556101cc565b828001600101855582156101cc579182015b828111156101cb5782518255916020019190600101906101b0565b5b5090506101d991906101dd565b5090565b6101ff91905b808211156101fb5760008160009055506001016101e3565b5090565b90565b610412806102116000396000f3fe608060405234801561001057600080fd5b506004361061004c5760003560e01c806302d947ef1461005157806370651a181461009f578063a3ec138d14610154578063fc2eed52146101b0575b600080fd5b61009d6004803603604081101561006757600080fd5b8101908080359060200190929190803573ffffffffffffffffffffffffffffffffffffffff1690602001909291905050506101ce565b005b6100cb600480360360208110156100b557600080fd5b81019080803590602001909291905050506102f5565b6040518080602001848152602001838152602001828103825285818151815260200191508051906020019080838360005b838110156101175780820151818401526020810190506100fc565b50505050905090810190601f1680156101445780820380516001836020036101000a031916815260200191505b5094505050505060405180910390f35b6101966004803603602081101561016a57600080fd5b81019080803573ffffffffffffffffffffffffffffffffffffffff1690602001909291905050506103b7565b604051808215151515815260200191505060405180910390f35b6101b86103d7565b6040518082815260200191505060405180910390f35b600160008273ffffffffffffffffffffffffffffffffffffffff1673ffffffffffffffffffffffffffffffffffffffff16815260200190815260200160002060009054906101000a900460ff161561022557600080fd5b60018060008373ffffffffffffffffffffffffffffffffffffffff1673ffffffffffffffffffffffffffffffffffffffff16815260200190815260200160002060006101000a81548160ff0219169083151502179055506000808381526020019081526020016000206002016000815480929190600101919050555060011515600160008373ffffffffffffffffffffffffffffffffffffffff1673ffffffffffffffffffffffffffffffffffffffff16815260200190815260200160002060009054906101000a905050505050565b6000602052806000526040600020600091509050806000018054600181600116156101000203166002900480601f0160208091040260200160405190810160405280929190818152602001828054600181600116156101000203166002900480156103a15780601f10610376576101008083540402835291602001916103a1565b820191906000526020600020905b81548152906001019060200180831161038457829003601f168201915b5050505050908060010154908060020154905083565b60016020528060005260406000206000915054906101000a900460ff1681565b6002548156fea265627a7a7231582014f2f58b6d9cce633be286d8bea2c03c955c830a826e6d52463f3c0c4f6c333764736f6c63430005100032",
  "source": "pragma solidity >=0.4.22 <0.8.0;\r\n contract Election{\r\n     struct Party{\r\n         string name;\r\n         uint id;\r\n         uint voteCount;\r\n     }\r\n     mapping(uint=> Party) public parties;\r\n     mapping(address=> bool) public voters;\r\n     \r\n     uint public partycount;\r\n    constructor() public{\r\n            addParty('NDA');\r\n            addParty('UPA');\r\n            addParty('other');\r\n     }\r\n    function addParty(string memory _name) private{\r\n        partycount++;\r\n        parties[partycount]=Party(_name,partycount,0);\r\n    }\r\n    \r\n    function vote(uint id,address add) public{\r\n          require(!voters[add]);\r\n\r\n        voters[add]=true;\r\n            parties[id].voteCount++;\r\n            voters[add]==true;\r\n        \r\n        \r\n    }\r\n }\r\n",
  "sourcePath": "E:\\ballet paper\\contracts\\Election.sol",
  "compiler": {
    "name": "solc",
    "version": "0.5.16+commit.9c3226ce.Emscripten.clang"
  },
  "schemaVersion": "3.4.3",
  "updatedAt": "2021-09-20T06:43:33.587Z",
  "networkType": "ethereum",
  "devdoc": {
    "methods": {}
  },
  "userdoc": {
    "methods": {}
  }
}